{
  "_format": "hh-sol-artifact-1",
  "contractName": "Talk",
  "sourceName": "contracts/Talk.sol",
  "abi": [
    {
      "inputs": [],
      "stateMutability": "nonpayable",
      "type": "constructor"
    },
    {
      "anonymous": false,
      "inputs": [
        {
          "indexed": false,
          "internalType": "bytes32",
          "name": "postId",
          "type": "bytes32"
        },
        {
          "indexed": false,
          "internalType": "bytes32",
          "name": "commentId",
          "type": "bytes32"
        },
        {
          "indexed": false,
          "internalType": "address",
          "name": "author",
          "type": "address"
        },
        {
          "indexed": false,
          "internalType": "string",
          "name": "comment",
          "type": "string"
        },
        {
          "indexed": false,
          "internalType": "uint256",
          "name": "timestamp",
          "type": "uint256"
        },
        {
          "indexed": false,
          "internalType": "uint256",
          "name": "likes",
          "type": "uint256"
        },
        {
          "indexed": false,
          "internalType": "uint256",
          "name": "dislikes",
          "type": "uint256"
        }
      ],
      "name": "CommentEvent",
      "type": "event"
    },
    {
      "anonymous": false,
      "inputs": [
        {
          "indexed": false,
          "internalType": "bytes32",
          "name": "postId",
          "type": "bytes32"
        },
        {
          "indexed": false,
          "internalType": "address",
          "name": "author",
          "type": "address"
        },
        {
          "indexed": false,
          "internalType": "string",
          "name": "heading",
          "type": "string"
        },
        {
          "indexed": false,
          "internalType": "string",
          "name": "description",
          "type": "string"
        },
        {
          "indexed": false,
          "internalType": "uint256",
          "name": "timestamp",
          "type": "uint256"
        },
        {
          "indexed": false,
          "internalType": "uint256",
          "name": "likes",
          "type": "uint256"
        },
        {
          "indexed": false,
          "internalType": "uint256",
          "name": "dislikes",
          "type": "uint256"
        }
      ],
      "name": "PostEvent",
      "type": "event"
    },
    {
      "inputs": [
        {
          "internalType": "bytes32",
          "name": "_postId",
          "type": "bytes32"
        },
        {
          "internalType": "string",
          "name": "_comment",
          "type": "string"
        }
      ],
      "name": "addComment",
      "outputs": [],
      "stateMutability": "nonpayable",
      "type": "function"
    },
    {
      "inputs": [
        {
          "internalType": "string",
          "name": "_heading",
          "type": "string"
        },
        {
          "internalType": "string",
          "name": "_description",
          "type": "string"
        }
      ],
      "name": "createPost",
      "outputs": [],
      "stateMutability": "nonpayable",
      "type": "function"
    },
    {
      "inputs": [
        {
          "internalType": "bytes32",
          "name": "_postId",
          "type": "bytes32"
        },
        {
          "internalType": "bytes32",
          "name": "_commentId",
          "type": "bytes32"
        }
      ],
      "name": "deleteComment",
      "outputs": [],
      "stateMutability": "nonpayable",
      "type": "function"
    },
    {
      "inputs": [
        {
          "internalType": "bytes32",
          "name": "_postId",
          "type": "bytes32"
        }
      ],
      "name": "deletePost",
      "outputs": [],
      "stateMutability": "nonpayable",
      "type": "function"
    },
    {
      "inputs": [
        {
          "internalType": "bytes32",
          "name": "_postId",
          "type": "bytes32"
        },
        {
          "internalType": "bytes32",
          "name": "_commentId",
          "type": "bytes32"
        }
      ],
      "name": "dislikeComment",
      "outputs": [],
      "stateMutability": "nonpayable",
      "type": "function"
    },
    {
      "inputs": [
        {
          "internalType": "bytes32",
          "name": "_postId",
          "type": "bytes32"
        }
      ],
      "name": "dislikePost",
      "outputs": [],
      "stateMutability": "nonpayable",
      "type": "function"
    },
    {
      "inputs": [
        {
          "internalType": "bytes32",
          "name": "_postId",
          "type": "bytes32"
        },
        {
          "internalType": "bytes32",
          "name": "_commentId",
          "type": "bytes32"
        }
      ],
      "name": "likeComment",
      "outputs": [],
      "stateMutability": "nonpayable",
      "type": "function"
    },
    {
      "inputs": [
        {
          "internalType": "bytes32",
          "name": "_postId",
          "type": "bytes32"
        }
      ],
      "name": "likePost",
      "outputs": [],
      "stateMutability": "nonpayable",
      "type": "function"
    },
    {
      "inputs": [],
      "name": "owner",
      "outputs": [
        {
          "internalType": "address",
          "name": "",
          "type": "address"
        }
      ],
      "stateMutability": "view",
      "type": "function"
    },
    {
      "inputs": [
        {
          "internalType": "bytes32",
          "name": "",
          "type": "bytes32"
        },
        {
          "internalType": "bytes32",
          "name": "",
          "type": "bytes32"
        }
      ],
      "name": "postToComment",
      "outputs": [
        {
          "internalType": "bytes32",
          "name": "postId",
          "type": "bytes32"
        },
        {
          "internalType": "bytes32",
          "name": "commentId",
          "type": "bytes32"
        },
        {
          "internalType": "address",
          "name": "author",
          "type": "address"
        },
        {
          "internalType": "string",
          "name": "comment",
          "type": "string"
        },
        {
          "internalType": "uint256",
          "name": "timestamp",
          "type": "uint256"
        },
        {
          "internalType": "uint256",
          "name": "likes",
          "type": "uint256"
        },
        {
          "internalType": "uint256",
          "name": "dislikes",
          "type": "uint256"
        }
      ],
      "stateMutability": "view",
      "type": "function"
    },
    {
      "inputs": [
        {
          "internalType": "bytes32",
          "name": "",
          "type": "bytes32"
        }
      ],
      "name": "posts",
      "outputs": [
        {
          "internalType": "bytes32",
          "name": "postId",
          "type": "bytes32"
        },
        {
          "internalType": "address",
          "name": "author",
          "type": "address"
        },
        {
          "internalType": "string",
          "name": "heading",
          "type": "string"
        },
        {
          "internalType": "string",
          "name": "description",
          "type": "string"
        },
        {
          "internalType": "uint256",
          "name": "timestamp",
          "type": "uint256"
        },
        {
          "internalType": "uint256",
          "name": "likes",
          "type": "uint256"
        },
        {
          "internalType": "uint256",
          "name": "dislikes",
          "type": "uint256"
        }
      ],
      "stateMutability": "view",
      "type": "function"
    }
  ],
  "bytecode": "0x608060405234801561001057600080fd5b50336000806101000a81548173ffffffffffffffffffffffffffffffffffffffff021916908373ffffffffffffffffffffffffffffffffffffffff1602179055506113e1806100606000396000f3fe608060405234801561001057600080fd5b50600436106100a95760003560e01c8063715c5d6911610071578063715c5d691461013a57806385bbd2a5146101565780638da5cb5b14610172578063b47c53fa14610190578063dff72dec146101c6578063e9752efa146101fc576100a9565b80631f33e67f146100ae5780633473fb5d146100ca578063392338f5146100e657806345fcaf901461010257806368dbf9a81461011e575b600080fd5b6100c860048036038101906100c39190610cb7565b610218565b005b6100e460048036038101906100df9190610c7b565b610398565b005b61010060048036038101906100fb9190610d0b565b6103d9565b005b61011c60048036038101906101179190610c7b565b61055d565b005b61013860048036038101906101339190610c52565b6106a0565b005b610154600480360381019061014f9190610c7b565b6106cf565b005b610170600480360381019061016b9190610c52565b610710565b005b61017a61073f565b6040516101879190610e92565b60405180910390f35b6101aa60048036038101906101a59190610c7b565b610763565b6040516101bd97969594939291906110ae565b60405180910390f35b6101e060048036038101906101db9190610c52565b61085a565b6040516101f39796959493929190610fbb565b60405180910390f35b61021660048036038101906102119190610c52565b6109cc565b005b600033428360405160200161022f93929190610ead565b6040516020818303038152906040528051906020012090506040518060e001604052808481526020018281526020013373ffffffffffffffffffffffffffffffffffffffff168152602001838152602001428152602001600081526020016000815250600260008581526020019081526020016000206000838152602001908152602001600020600082015181600001556020820151816001015560408201518160020160006101000a81548173ffffffffffffffffffffffffffffffffffffffff021916908373ffffffffffffffffffffffffffffffffffffffff160217905550606082015181600301908051906020019061032d929190610af2565b506080820151816004015560a0820151816005015560c082015181600601559050507fb6f375990ff97b67fa5ccb5694e14fdfafe4be2fdcfb2bd36e39f88917333309838233854260008060405161038b9796959493929190611038565b60405180910390a1505050565b60026000838152602001908152602001600020600082815260200190815260200160002060050160008154809291906103d0906112ad565b91905055505050565b6000334284846040516020016103f29493929190610eeb565b6040516020818303038152906040528051906020012090506040518060e001604052808281526020013373ffffffffffffffffffffffffffffffffffffffff168152602001848152602001838152602001428152602001600081526020016000815250600160008381526020019081526020016000206000820151816000015560208201518160010160006101000a81548173ffffffffffffffffffffffffffffffffffffffff021916908373ffffffffffffffffffffffffffffffffffffffff16021790555060408201518160020190805190602001906104d5929190610af2565b5060608201518160030190805190602001906104f2929190610af2565b506080820151816004015560a0820151816005015560c082015181600601559050507fa0e761a3319b5db44867ec0ebb8b6a777ef2abe6998b8450a3c96ff65a0b37fc81338585426000806040516105509796959493929190610f3e565b60405180910390a1505050565b818160026000838152602001908152602001600020600082815260200190815260200160002060020160009054906101000a900473ffffffffffffffffffffffffffffffffffffffff1673ffffffffffffffffffffffffffffffffffffffff163373ffffffffffffffffffffffffffffffffffffffff1614610614576040517f08c379a000000000000000000000000000000000000000000000000000000000815260040161060b90611144565b60405180910390fd5b60026000858152602001908152602001600020600084815260200190815260200160002060008082016000905560018201600090556002820160006101000a81549073ffffffffffffffffffffffffffffffffffffffff02191690556003820160006106809190610b78565b600482016000905560058201600090556006820160009055505050505050565b6001600082815260200190815260200160002060050160008154809291906106c7906112ad565b919050555050565b6002600083815260200190815260200160002060008281526020019081526020016000206006016000815480929190610707906112ad565b91905055505050565b600160008281526020019081526020016000206006016000815480929190610737906112ad565b919050555050565b60008054906101000a900473ffffffffffffffffffffffffffffffffffffffff1681565b6002602052816000526040600020602052806000526040600020600091509150508060000154908060010154908060020160009054906101000a900473ffffffffffffffffffffffffffffffffffffffff16908060030180546107c59061127b565b80601f01602080910402602001604051908101604052809291908181526020018280546107f19061127b565b801561083e5780601f106108135761010080835404028352916020019161083e565b820191906000526020600020905b81548152906001019060200180831161082157829003601f168201915b5050505050908060040154908060050154908060060154905087565b60016020528060005260406000206000915090508060000154908060010160009054906101000a900473ffffffffffffffffffffffffffffffffffffffff16908060020180546108a99061127b565b80601f01602080910402602001604051908101604052809291908181526020018280546108d59061127b565b80156109225780601f106108f757610100808354040283529160200191610922565b820191906000526020600020905b81548152906001019060200180831161090557829003601f168201915b5050505050908060030180546109379061127b565b80601f01602080910402602001604051908101604052809291908181526020018280546109639061127b565b80156109b05780601f10610985576101008083540402835291602001916109b0565b820191906000526020600020905b81548152906001019060200180831161099357829003601f168201915b5050505050908060040154908060050154908060060154905087565b806001600082815260200190815260200160002060010160009054906101000a900473ffffffffffffffffffffffffffffffffffffffff1673ffffffffffffffffffffffffffffffffffffffff163373ffffffffffffffffffffffffffffffffffffffff1614610a71576040517f08c379a0000000000000000000000000000000000000000000000000000000008152600401610a6890611124565b60405180910390fd5b600160008381526020019081526020016000206000808201600090556001820160006101000a81549073ffffffffffffffffffffffffffffffffffffffff0219169055600282016000610ac49190610b78565b600382016000610ad49190610b78565b60048201600090556005820160009055600682016000905550505050565b828054610afe9061127b565b90600052602060002090601f016020900481019282610b205760008555610b67565b82601f10610b3957805160ff1916838001178555610b67565b82800160010185558215610b67579182015b82811115610b66578251825591602001919060010190610b4b565b5b509050610b749190610bb8565b5090565b508054610b849061127b565b6000825580601f10610b965750610bb5565b601f016020900490600052602060002090810190610bb49190610bb8565b5b50565b5b80821115610bd1576000816000905550600101610bb9565b5090565b6000610be8610be384611195565b611164565b905082815260208101848484011115610c0057600080fd5b610c0b848285611239565b509392505050565b600081359050610c2281611394565b92915050565b600082601f830112610c3957600080fd5b8135610c49848260208601610bd5565b91505092915050565b600060208284031215610c6457600080fd5b6000610c7284828501610c13565b91505092915050565b60008060408385031215610c8e57600080fd5b6000610c9c85828601610c13565b9250506020610cad85828601610c13565b9150509250929050565b60008060408385031215610cca57600080fd5b6000610cd885828601610c13565b925050602083013567ffffffffffffffff811115610cf557600080fd5b610d0185828601610c28565b9150509250929050565b60008060408385031215610d1e57600080fd5b600083013567ffffffffffffffff811115610d3857600080fd5b610d4485828601610c28565b925050602083013567ffffffffffffffff811115610d6157600080fd5b610d6d85828601610c28565b9150509250929050565b610d80816111e1565b82525050565b610d8f816111f3565b82525050565b610d9e81611227565b82525050565b6000610daf826111c5565b610db981856111d0565b9350610dc9818560208601611248565b610dd281611383565b840191505092915050565b6000610dea601f836111d0565b91507f4f6e6c7920617574686f722063616e2064656c6574652074686520706f7374006000830152602082019050919050565b6000610e2a6022836111d0565b91507f4f6e6c7920617574686f722063616e2064656c6574652074686520636f6d6d6560008301527f6e740000000000000000000000000000000000000000000000000000000000006020830152604082019050919050565b610e8c8161121d565b82525050565b6000602082019050610ea76000830184610d77565b92915050565b6000606082019050610ec26000830186610d77565b610ecf6020830185610e83565b8181036040830152610ee18184610da4565b9050949350505050565b6000608082019050610f006000830187610d77565b610f0d6020830186610e83565b8181036040830152610f1f8185610da4565b90508181036060830152610f338184610da4565b905095945050505050565b600060e082019050610f53600083018a610d86565b610f606020830189610d77565b8181036040830152610f728188610da4565b90508181036060830152610f868187610da4565b9050610f956080830186610e83565b610fa260a0830185610d95565b610faf60c0830184610d95565b98975050505050505050565b600060e082019050610fd0600083018a610d86565b610fdd6020830189610d77565b8181036040830152610fef8188610da4565b905081810360608301526110038187610da4565b90506110126080830186610e83565b61101f60a0830185610e83565b61102c60c0830184610e83565b98975050505050505050565b600060e08201905061104d600083018a610d86565b61105a6020830189610d86565b6110676040830188610d77565b81810360608301526110798187610da4565b90506110886080830186610e83565b61109560a0830185610d95565b6110a260c0830184610d95565b98975050505050505050565b600060e0820190506110c3600083018a610d86565b6110d06020830189610d86565b6110dd6040830188610d77565b81810360608301526110ef8187610da4565b90506110fe6080830186610e83565b61110b60a0830185610e83565b61111860c0830184610e83565b98975050505050505050565b6000602082019050818103600083015261113d81610ddd565b9050919050565b6000602082019050818103600083015261115d81610e1d565b9050919050565b6000604051905081810181811067ffffffffffffffff8211171561118b5761118a611354565b5b8060405250919050565b600067ffffffffffffffff8211156111b0576111af611354565b5b601f19601f8301169050602081019050919050565b600081519050919050565b600082825260208201905092915050565b60006111ec826111fd565b9050919050565b6000819050919050565b600073ffffffffffffffffffffffffffffffffffffffff82169050919050565b6000819050919050565b60006112328261121d565b9050919050565b82818337600083830152505050565b60005b8381101561126657808201518184015260208101905061124b565b83811115611275576000848401525b50505050565b6000600282049050600182168061129357607f821691505b602082108114156112a7576112a6611325565b5b50919050565b60006112b88261121d565b91507fffffffffffffffffffffffffffffffffffffffffffffffffffffffffffffffff8214156112eb576112ea6112f6565b5b600182019050919050565b7f4e487b7100000000000000000000000000000000000000000000000000000000600052601160045260246000fd5b7f4e487b7100000000000000000000000000000000000000000000000000000000600052602260045260246000fd5b7f4e487b7100000000000000000000000000000000000000000000000000000000600052604160045260246000fd5b6000601f19601f8301169050919050565b61139d816111f3565b81146113a857600080fd5b5056fea2646970667358221220d08667e35da54ce0609d9dd8a034ae072c3341c47662effd5d75f7fe70f8715164736f6c63430008000033",
  "linkReferences": {},
  "deployedLinkReferences": {}
}