{
  "_format": "hh-sol-artifact-1",
  "contractName": "Talk",
  "sourceName": "contracts/Talk.sol",
  "abi": [
    {
      "inputs": [],
      "stateMutability": "nonpayable",
      "type": "constructor"
    },
    {
      "anonymous": false,
      "inputs": [
        {
          "indexed": false,
          "internalType": "bytes32",
          "name": "postId",
          "type": "bytes32"
        },
        {
          "indexed": false,
          "internalType": "bytes32",
          "name": "commentId",
          "type": "bytes32"
        },
        {
          "indexed": false,
          "internalType": "address",
          "name": "author",
          "type": "address"
        },
        {
          "indexed": false,
          "internalType": "string",
          "name": "comment",
          "type": "string"
        },
        {
          "indexed": false,
          "internalType": "uint256",
          "name": "timestamp",
          "type": "uint256"
        }
      ],
      "name": "CommentEvent",
      "type": "event"
    },
    {
      "anonymous": false,
      "inputs": [
        {
          "indexed": false,
          "internalType": "bytes32",
          "name": "postId",
          "type": "bytes32"
        },
        {
          "indexed": false,
          "internalType": "address",
          "name": "author",
          "type": "address"
        },
        {
          "indexed": false,
          "internalType": "string",
          "name": "heading",
          "type": "string"
        },
        {
          "indexed": false,
          "internalType": "string",
          "name": "description",
          "type": "string"
        },
        {
          "indexed": false,
          "internalType": "uint256",
          "name": "timestamp",
          "type": "uint256"
        },
        {
          "indexed": false,
          "internalType": "enum Talk.PostType",
          "name": "postType",
          "type": "uint8"
        }
      ],
      "name": "PostEvent",
      "type": "event"
    },
    {
      "inputs": [
        {
          "internalType": "bytes32",
          "name": "_postId",
          "type": "bytes32"
        },
        {
          "internalType": "string",
          "name": "_comment",
          "type": "string"
        }
      ],
      "name": "addComment",
      "outputs": [],
      "stateMutability": "nonpayable",
      "type": "function"
    },
    {
      "inputs": [
        {
          "internalType": "string",
          "name": "_heading",
          "type": "string"
        },
        {
          "internalType": "string",
          "name": "_description",
          "type": "string"
        },
        {
          "internalType": "enum Talk.PostType",
          "name": "_postType",
          "type": "uint8"
        }
      ],
      "name": "createPost",
      "outputs": [],
      "stateMutability": "nonpayable",
      "type": "function"
    },
    {
      "inputs": [],
      "name": "getAllPosts",
      "outputs": [
        {
          "components": [
            {
              "internalType": "bytes32",
              "name": "postId",
              "type": "bytes32"
            },
            {
              "internalType": "address",
              "name": "author",
              "type": "address"
            },
            {
              "internalType": "string",
              "name": "heading",
              "type": "string"
            },
            {
              "internalType": "string",
              "name": "description",
              "type": "string"
            },
            {
              "internalType": "uint256",
              "name": "timestamp",
              "type": "uint256"
            },
            {
              "internalType": "enum Talk.PostType",
              "name": "postType",
              "type": "uint8"
            }
          ],
          "internalType": "struct Talk.Post[]",
          "name": "",
          "type": "tuple[]"
        }
      ],
      "stateMutability": "view",
      "type": "function"
    },
    {
      "inputs": [
        {
          "internalType": "bytes32",
          "name": "_postId",
          "type": "bytes32"
        }
      ],
      "name": "getComments",
      "outputs": [
        {
          "components": [
            {
              "internalType": "bytes32",
              "name": "postId",
              "type": "bytes32"
            },
            {
              "internalType": "bytes32",
              "name": "commentId",
              "type": "bytes32"
            },
            {
              "internalType": "address",
              "name": "author",
              "type": "address"
            },
            {
              "internalType": "string",
              "name": "comment",
              "type": "string"
            },
            {
              "internalType": "uint256",
              "name": "timestamp",
              "type": "uint256"
            }
          ],
          "internalType": "struct Talk.Comment[]",
          "name": "",
          "type": "tuple[]"
        }
      ],
      "stateMutability": "view",
      "type": "function"
    },
    {
      "inputs": [],
      "name": "owner",
      "outputs": [
        {
          "internalType": "address",
          "name": "",
          "type": "address"
        }
      ],
      "stateMutability": "view",
      "type": "function"
    },
    {
      "inputs": [
        {
          "internalType": "uint256",
          "name": "",
          "type": "uint256"
        }
      ],
      "name": "postIds",
      "outputs": [
        {
          "internalType": "bytes32",
          "name": "",
          "type": "bytes32"
        }
      ],
      "stateMutability": "view",
      "type": "function"
    },
    {
      "inputs": [
        {
          "internalType": "bytes32",
          "name": "",
          "type": "bytes32"
        },
        {
          "internalType": "uint256",
          "name": "",
          "type": "uint256"
        }
      ],
      "name": "postToComments",
      "outputs": [
        {
          "internalType": "bytes32",
          "name": "postId",
          "type": "bytes32"
        },
        {
          "internalType": "bytes32",
          "name": "commentId",
          "type": "bytes32"
        },
        {
          "internalType": "address",
          "name": "author",
          "type": "address"
        },
        {
          "internalType": "string",
          "name": "comment",
          "type": "string"
        },
        {
          "internalType": "uint256",
          "name": "timestamp",
          "type": "uint256"
        }
      ],
      "stateMutability": "view",
      "type": "function"
    },
    {
      "inputs": [
        {
          "internalType": "bytes32",
          "name": "",
          "type": "bytes32"
        }
      ],
      "name": "posts",
      "outputs": [
        {
          "internalType": "bytes32",
          "name": "postId",
          "type": "bytes32"
        },
        {
          "internalType": "address",
          "name": "author",
          "type": "address"
        },
        {
          "internalType": "string",
          "name": "heading",
          "type": "string"
        },
        {
          "internalType": "string",
          "name": "description",
          "type": "string"
        },
        {
          "internalType": "uint256",
          "name": "timestamp",
          "type": "uint256"
        },
        {
          "internalType": "enum Talk.PostType",
          "name": "postType",
          "type": "uint8"
        }
      ],
      "stateMutability": "view",
      "type": "function"
    }
  ],
  "bytecode": "0x6080604052348015600f57600080fd5b50336000806101000a81548173ffffffffffffffffffffffffffffffffffffffff021916908373ffffffffffffffffffffffffffffffffffffffff160217905550611a3c8061005f6000396000f3fe608060405234801561001057600080fd5b50600436106100885760003560e01c806392db7a641161005b57806392db7a6414610115578063da36ee4814610149578063dff72dec14610165578063f7ba787d1461019a57610088565b80631f33e67f1461008d57806330561100146100a957806350cde8ef146100c75780638da5cb5b146100f7575b600080fd5b6100a760048036038101906100a29190610e78565b6101ca565b005b6100b161038e565b6040516100be9190611185565b60405180910390f35b6100e160048036038101906100dc91906111d3565b610635565b6040516100ee919061120f565b60405180910390f35b6100ff610659565b60405161010c9190611239565b60405180910390f35b61012f600480360381019061012a9190611254565b61067d565b6040516101409594939291906112ed565b60405180910390f35b610163600480360381019061015e919061136c565b610778565b005b61017f600480360381019061017a91906113f7565b61093b565b60405161019196959493929190611433565b60405180910390f35b6101b460048036038101906101af91906113f7565b610ab4565b6040516101c191906115da565b60405180910390f35b6000801b600160008481526020019081526020016000206000015403610225576040517f08c379a000000000000000000000000000000000000000000000000000000000815260040161021c90611648565b60405180910390fd5b600033428360405160200161023c93929190611668565b604051602081830303815290604052805190602001209050600260008481526020019081526020016000206040518060a001604052808581526020018381526020013373ffffffffffffffffffffffffffffffffffffffff168152602001848152602001428152509080600181540180825580915050600190039060005260206000209060050201600090919091909150600082015181600001556020820151816001015560408201518160020160006101000a81548173ffffffffffffffffffffffffffffffffffffffff021916908373ffffffffffffffffffffffffffffffffffffffff160217905550606082015181600301908161033d91906118b2565b506080820151816004015550507f4cbb3727ec6ce492134461e073cb2315a14d836a16a1dd9d219833780eb36c5183823385426040516103819594939291906112ed565b60405180910390a1505050565b6060600060038054905067ffffffffffffffff8111156103b1576103b0610d4d565b5b6040519080825280602002602001820160405280156103ea57816020015b6103d7610c87565b8152602001906001900390816103cf5790505b50905060005b60038054905081101561062d57600160006003838154811061041557610414611984565b5b906000526020600020015481526020019081526020016000206040518060c0016040529081600082015481526020016001820160009054906101000a900473ffffffffffffffffffffffffffffffffffffffff1673ffffffffffffffffffffffffffffffffffffffff1673ffffffffffffffffffffffffffffffffffffffff1681526020016002820180546104a9906116d5565b80601f01602080910402602001604051908101604052809291908181526020018280546104d5906116d5565b80156105225780601f106104f757610100808354040283529160200191610522565b820191906000526020600020905b81548152906001019060200180831161050557829003601f168201915b5050505050815260200160038201805461053b906116d5565b80601f0160208091040260200160405190810160405280929190818152602001828054610567906116d5565b80156105b45780601f10610589576101008083540402835291602001916105b4565b820191906000526020600020905b81548152906001019060200180831161059757829003601f168201915b50505050508152602001600482015481526020016005820160009054906101000a900460ff1660028111156105ec576105eb610fe8565b5b60028111156105fe576105fd610fe8565b5b8152505082828151811061061557610614611984565b5b602002602001018190525080806001019150506103f0565b508091505090565b6003818154811061064557600080fd5b906000526020600020016000915090505481565b60008054906101000a900473ffffffffffffffffffffffffffffffffffffffff1681565b6002602052816000526040600020818154811061069957600080fd5b9060005260206000209060050201600091509150508060000154908060010154908060020160009054906101000a900473ffffffffffffffffffffffffffffffffffffffff16908060030180546106ef906116d5565b80601f016020809104026020016040519081016040528092919081815260200182805461071b906116d5565b80156107685780601f1061073d57610100808354040283529160200191610768565b820191906000526020600020905b81548152906001019060200180831161074b57829003601f168201915b5050505050908060040154905085565b60003342858560405160200161079194939291906119b3565b6040516020818303038152906040528051906020012090506040518060c001604052808281526020013373ffffffffffffffffffffffffffffffffffffffff1681526020018581526020018481526020014281526020018360028111156107fb576107fa610fe8565b5b815250600160008381526020019081526020016000206000820151816000015560208201518160010160006101000a81548173ffffffffffffffffffffffffffffffffffffffff021916908373ffffffffffffffffffffffffffffffffffffffff160217905550604082015181600201908161087791906118b2565b50606082015181600301908161088d91906118b2565b506080820151816004015560a08201518160050160006101000a81548160ff021916908360028111156108c3576108c2610fe8565b5b021790555090505060038190806001815401808255809150506001900390600052602060002001600090919091909150557fd5e0da4e9489101bbaa153cd18b2e3a0bdfb7d5c779edf6665ca1d6ffd363e4681338686428760405161092d96959493929190611433565b60405180910390a150505050565b60016020528060005260406000206000915090508060000154908060010160009054906101000a900473ffffffffffffffffffffffffffffffffffffffff169080600201805461098a906116d5565b80601f01602080910402602001604051908101604052809291908181526020018280546109b6906116d5565b8015610a035780601f106109d857610100808354040283529160200191610a03565b820191906000526020600020905b8154815290600101906020018083116109e657829003601f168201915b505050505090806003018054610a18906116d5565b80601f0160208091040260200160405190810160405280929190818152602001828054610a44906116d5565b8015610a915780601f10610a6657610100808354040283529160200191610a91565b820191906000526020600020905b815481529060010190602001808311610a7457829003601f168201915b5050505050908060040154908060050160009054906101000a900460ff16905086565b60606000801b600160008481526020019081526020016000206000015403610b11576040517f08c379a0000000000000000000000000000000000000000000000000000000008152600401610b0890611648565b60405180910390fd5b60026000838152602001908152602001600020805480602002602001604051908101604052809291908181526020016000905b82821015610c7c57838290600052602060002090600502016040518060a001604052908160008201548152602001600182015481526020016002820160009054906101000a900473ffffffffffffffffffffffffffffffffffffffff1673ffffffffffffffffffffffffffffffffffffffff1673ffffffffffffffffffffffffffffffffffffffff168152602001600382018054610be1906116d5565b80601f0160208091040260200160405190810160405280929190818152602001828054610c0d906116d5565b8015610c5a5780601f10610c2f57610100808354040283529160200191610c5a565b820191906000526020600020905b815481529060010190602001808311610c3d57829003601f168201915b5050505050815260200160048201548152505081526020019060010190610b44565b505050509050919050565b6040518060c0016040528060008019168152602001600073ffffffffffffffffffffffffffffffffffffffff16815260200160608152602001606081526020016000815260200160006002811115610ce257610ce1610fe8565b5b81525090565b6000604051905090565b600080fd5b600080fd5b6000819050919050565b610d0f81610cfc565b8114610d1a57600080fd5b50565b600081359050610d2c81610d06565b92915050565b600080fd5b600080fd5b6000601f19601f8301169050919050565b7f4e487b7100000000000000000000000000000000000000000000000000000000600052604160045260246000fd5b610d8582610d3c565b810181811067ffffffffffffffff82111715610da457610da3610d4d565b5b80604052505050565b6000610db7610ce8565b9050610dc38282610d7c565b919050565b600067ffffffffffffffff821115610de357610de2610d4d565b5b610dec82610d3c565b9050602081019050919050565b82818337600083830152505050565b6000610e1b610e1684610dc8565b610dad565b905082815260208101848484011115610e3757610e36610d37565b5b610e42848285610df9565b509392505050565b600082601f830112610e5f57610e5e610d32565b5b8135610e6f848260208601610e08565b91505092915050565b60008060408385031215610e8f57610e8e610cf2565b5b6000610e9d85828601610d1d565b925050602083013567ffffffffffffffff811115610ebe57610ebd610cf7565b5b610eca85828601610e4a565b9150509250929050565b600081519050919050565b600082825260208201905092915050565b6000819050602082019050919050565b610f0981610cfc565b82525050565b600073ffffffffffffffffffffffffffffffffffffffff82169050919050565b6000610f3a82610f0f565b9050919050565b610f4a81610f2f565b82525050565b600081519050919050565b600082825260208201905092915050565b60005b83811015610f8a578082015181840152602081019050610f6f565b60008484015250505050565b6000610fa182610f50565b610fab8185610f5b565b9350610fbb818560208601610f6c565b610fc481610d3c565b840191505092915050565b6000819050919050565b610fe281610fcf565b82525050565b7f4e487b7100000000000000000000000000000000000000000000000000000000600052602160045260246000fd5b6003811061102857611027610fe8565b5b50565b600081905061103982611017565b919050565b60006110498261102b565b9050919050565b6110598161103e565b82525050565b600060c0830160008301516110776000860182610f00565b50602083015161108a6020860182610f41565b50604083015184820360408601526110a28282610f96565b915050606083015184820360608601526110bc8282610f96565b91505060808301516110d16080860182610fd9565b5060a08301516110e460a0860182611050565b508091505092915050565b60006110fb838361105f565b905092915050565b6000602082019050919050565b600061111b82610ed4565b6111258185610edf565b93508360208202850161113785610ef0565b8060005b85811015611173578484038952815161115485826110ef565b945061115f83611103565b925060208a0199505060018101905061113b565b50829750879550505050505092915050565b6000602082019050818103600083015261119f8184611110565b905092915050565b6111b081610fcf565b81146111bb57600080fd5b50565b6000813590506111cd816111a7565b92915050565b6000602082840312156111e9576111e8610cf2565b5b60006111f7848285016111be565b91505092915050565b61120981610cfc565b82525050565b60006020820190506112246000830184611200565b92915050565b61123381610f2f565b82525050565b600060208201905061124e600083018461122a565b92915050565b6000806040838503121561126b5761126a610cf2565b5b600061127985828601610d1d565b925050602061128a858286016111be565b9150509250929050565b600082825260208201905092915050565b60006112b082610f50565b6112ba8185611294565b93506112ca818560208601610f6c565b6112d381610d3c565b840191505092915050565b6112e781610fcf565b82525050565b600060a0820190506113026000830188611200565b61130f6020830187611200565b61131c604083018661122a565b818103606083015261132e81856112a5565b905061133d60808301846112de565b9695505050505050565b6003811061135457600080fd5b50565b60008135905061136681611347565b92915050565b60008060006060848603121561138557611384610cf2565b5b600084013567ffffffffffffffff8111156113a3576113a2610cf7565b5b6113af86828701610e4a565b935050602084013567ffffffffffffffff8111156113d0576113cf610cf7565b5b6113dc86828701610e4a565b92505060406113ed86828701611357565b9150509250925092565b60006020828403121561140d5761140c610cf2565b5b600061141b84828501610d1d565b91505092915050565b61142d8161103e565b82525050565b600060c0820190506114486000830189611200565b611455602083018861122a565b818103604083015261146781876112a5565b9050818103606083015261147b81866112a5565b905061148a60808301856112de565b61149760a0830184611424565b979650505050505050565b600081519050919050565b600082825260208201905092915050565b6000819050602082019050919050565b600060a0830160008301516114e66000860182610f00565b5060208301516114f96020860182610f00565b50604083015161150c6040860182610f41565b50606083015184820360608601526115248282610f96565b91505060808301516115396080860182610fd9565b508091505092915050565b600061155083836114ce565b905092915050565b6000602082019050919050565b6000611570826114a2565b61157a81856114ad565b93508360208202850161158c856114be565b8060005b858110156115c857848403895281516115a98582611544565b94506115b483611558565b925060208a01995050600181019050611590565b50829750879550505050505092915050565b600060208201905081810360008301526115f48184611565565b905092915050565b7f506f737420646f6573206e6f7420657869737400000000000000000000000000600082015250565b6000611632601383611294565b915061163d826115fc565b602082019050919050565b6000602082019050818103600083015261166181611625565b9050919050565b600060608201905061167d600083018661122a565b61168a60208301856112de565b818103604083015261169c81846112a5565b9050949350505050565b7f4e487b7100000000000000000000000000000000000000000000000000000000600052602260045260246000fd5b600060028204905060018216806116ed57607f821691505b602082108103611700576116ff6116a6565b5b50919050565b60008190508160005260206000209050919050565b60006020601f8301049050919050565b600082821b905092915050565b6000600883026117687fffffffffffffffffffffffffffffffffffffffffffffffffffffffffffffffff8261172b565b611772868361172b565b95508019841693508086168417925050509392505050565b6000819050919050565b60006117af6117aa6117a584610fcf565b61178a565b610fcf565b9050919050565b6000819050919050565b6117c983611794565b6117dd6117d5826117b6565b848454611738565b825550505050565b600090565b6117f26117e5565b6117fd8184846117c0565b505050565b5b81811015611821576118166000826117ea565b600181019050611803565b5050565b601f8211156118665761183781611706565b6118408461171b565b8101602085101561184f578190505b61186361185b8561171b565b830182611802565b50505b505050565b600082821c905092915050565b60006118896000198460080261186b565b1980831691505092915050565b60006118a28383611878565b9150826002028217905092915050565b6118bb82610f50565b67ffffffffffffffff8111156118d4576118d3610d4d565b5b6118de82546116d5565b6118e9828285611825565b600060209050601f83116001811461191c576000841561190a578287015190505b6119148582611896565b86555061197c565b601f19841661192a86611706565b60005b828110156119525784890151825560018201915060208501945060208101905061192d565b8683101561196f578489015161196b601f891682611878565b8355505b6001600288020188555050505b505050505050565b7f4e487b7100000000000000000000000000000000000000000000000000000000600052603260045260246000fd5b60006080820190506119c8600083018761122a565b6119d560208301866112de565b81810360408301526119e781856112a5565b905081810360608301526119fb81846112a5565b90509594505050505056fea264697066735822122063123bed3f8bf361ac9ffbd03a31f51dcae7784b4bc617fcabc82926333bd14a64736f6c634300081c0033",
  "linkReferences": {},
  "deployedLinkReferences": {}
}