{
  "_format": "hh-sol-artifact-1",
  "contractName": "Talk",
  "sourceName": "contracts/Talk.sol",
  "abi": [
    {
      "inputs": [],
      "stateMutability": "nonpayable",
      "type": "constructor"
    },
    {
      "anonymous": false,
      "inputs": [
        {
          "indexed": false,
          "internalType": "bytes32",
          "name": "postId",
          "type": "bytes32"
        },
        {
          "indexed": false,
          "internalType": "bytes32",
          "name": "commentId",
          "type": "bytes32"
        },
        {
          "indexed": false,
          "internalType": "address",
          "name": "author",
          "type": "address"
        },
        {
          "indexed": false,
          "internalType": "string",
          "name": "comment",
          "type": "string"
        },
        {
          "indexed": false,
          "internalType": "uint256",
          "name": "timestamp",
          "type": "uint256"
        }
      ],
      "name": "CommentEvent",
      "type": "event"
    },
    {
      "anonymous": false,
      "inputs": [
        {
          "indexed": false,
          "internalType": "bytes32",
          "name": "postId",
          "type": "bytes32"
        },
        {
          "indexed": false,
          "internalType": "address",
          "name": "author",
          "type": "address"
        },
        {
          "indexed": false,
          "internalType": "string",
          "name": "heading",
          "type": "string"
        },
        {
          "indexed": false,
          "internalType": "string",
          "name": "description",
          "type": "string"
        },
        {
          "indexed": false,
          "internalType": "uint256",
          "name": "timestamp",
          "type": "uint256"
        },
        {
          "indexed": false,
          "internalType": "enum Talk.PostType",
          "name": "postType",
          "type": "uint8"
        }
      ],
      "name": "PostEvent",
      "type": "event"
    },
    {
      "inputs": [
        {
          "internalType": "bytes32",
          "name": "_postId",
          "type": "bytes32"
        },
        {
          "internalType": "string",
          "name": "_comment",
          "type": "string"
        }
      ],
      "name": "addComment",
      "outputs": [],
      "stateMutability": "nonpayable",
      "type": "function"
    },
    {
      "inputs": [
        {
          "internalType": "string",
          "name": "_heading",
          "type": "string"
        },
        {
          "internalType": "string",
          "name": "_description",
          "type": "string"
        },
        {
          "internalType": "enum Talk.PostType",
          "name": "_postType",
          "type": "uint8"
        }
      ],
      "name": "createPost",
      "outputs": [],
      "stateMutability": "nonpayable",
      "type": "function"
    },
    {
      "inputs": [
        {
          "internalType": "enum Talk.PostType",
          "name": "_postType",
          "type": "uint8"
        }
      ],
      "name": "getAllPosts",
      "outputs": [
        {
          "components": [
            {
              "internalType": "bytes32",
              "name": "postId",
              "type": "bytes32"
            },
            {
              "internalType": "address",
              "name": "author",
              "type": "address"
            },
            {
              "internalType": "string",
              "name": "heading",
              "type": "string"
            },
            {
              "internalType": "string",
              "name": "description",
              "type": "string"
            },
            {
              "internalType": "uint256",
              "name": "timestamp",
              "type": "uint256"
            },
            {
              "internalType": "enum Talk.PostType",
              "name": "postType",
              "type": "uint8"
            }
          ],
          "internalType": "struct Talk.Post[]",
          "name": "",
          "type": "tuple[]"
        }
      ],
      "stateMutability": "view",
      "type": "function"
    },
    {
      "inputs": [
        {
          "internalType": "bytes32",
          "name": "_postId",
          "type": "bytes32"
        }
      ],
      "name": "getComments",
      "outputs": [
        {
          "components": [
            {
              "internalType": "bytes32",
              "name": "postId",
              "type": "bytes32"
            },
            {
              "internalType": "bytes32",
              "name": "commentId",
              "type": "bytes32"
            },
            {
              "internalType": "address",
              "name": "author",
              "type": "address"
            },
            {
              "internalType": "string",
              "name": "comment",
              "type": "string"
            },
            {
              "internalType": "uint256",
              "name": "timestamp",
              "type": "uint256"
            }
          ],
          "internalType": "struct Talk.Comment[]",
          "name": "",
          "type": "tuple[]"
        }
      ],
      "stateMutability": "view",
      "type": "function"
    },
    {
      "inputs": [],
      "name": "owner",
      "outputs": [
        {
          "internalType": "address",
          "name": "",
          "type": "address"
        }
      ],
      "stateMutability": "view",
      "type": "function"
    },
    {
      "inputs": [
        {
          "internalType": "uint256",
          "name": "",
          "type": "uint256"
        }
      ],
      "name": "postIds",
      "outputs": [
        {
          "internalType": "bytes32",
          "name": "",
          "type": "bytes32"
        }
      ],
      "stateMutability": "view",
      "type": "function"
    },
    {
      "inputs": [
        {
          "internalType": "bytes32",
          "name": "",
          "type": "bytes32"
        },
        {
          "internalType": "uint256",
          "name": "",
          "type": "uint256"
        }
      ],
      "name": "postToComments",
      "outputs": [
        {
          "internalType": "bytes32",
          "name": "postId",
          "type": "bytes32"
        },
        {
          "internalType": "bytes32",
          "name": "commentId",
          "type": "bytes32"
        },
        {
          "internalType": "address",
          "name": "author",
          "type": "address"
        },
        {
          "internalType": "string",
          "name": "comment",
          "type": "string"
        },
        {
          "internalType": "uint256",
          "name": "timestamp",
          "type": "uint256"
        }
      ],
      "stateMutability": "view",
      "type": "function"
    },
    {
      "inputs": [
        {
          "internalType": "bytes32",
          "name": "",
          "type": "bytes32"
        }
      ],
      "name": "posts",
      "outputs": [
        {
          "internalType": "bytes32",
          "name": "postId",
          "type": "bytes32"
        },
        {
          "internalType": "address",
          "name": "author",
          "type": "address"
        },
        {
          "internalType": "string",
          "name": "heading",
          "type": "string"
        },
        {
          "internalType": "string",
          "name": "description",
          "type": "string"
        },
        {
          "internalType": "uint256",
          "name": "timestamp",
          "type": "uint256"
        },
        {
          "internalType": "enum Talk.PostType",
          "name": "postType",
          "type": "uint8"
        }
      ],
      "stateMutability": "view",
      "type": "function"
    }
  ],
  "bytecode": "0x6080604052348015600f57600080fd5b50336000806101000a81548173ffffffffffffffffffffffffffffffffffffffff021916908373ffffffffffffffffffffffffffffffffffffffff160217905550611c078061005f6000396000f3fe608060405234801561001057600080fd5b50600436106100885760003560e01c8063da36ee481161005b578063da36ee481461012b578063dff72dec14610147578063e9d0dfbc1461017c578063f7ba787d146101ac57610088565b80631f33e67f1461008d57806350cde8ef146100a95780638da5cb5b146100d957806392db7a64146100f7575b600080fd5b6100a760048036038101906100a29190610f9f565b6101dc565b005b6100c360048036038101906100be9190611031565b6103a0565b6040516100d0919061106d565b60405180910390f35b6100e16103c4565b6040516100ee91906110c9565b60405180910390f35b610111600480360381019061010c91906110e4565b6103e8565b6040516101229594939291906111b2565b60405180910390f35b61014560048036038101906101409190611231565b6104e3565b005b610161600480360381019061015c91906112bc565b6106a6565b60405161017396959493929190611360565b60405180910390f35b610196600480360381019061019191906113cf565b61081f565b6040516101a391906115d4565b60405180910390f35b6101c660048036038101906101c191906112bc565b610bdb565b6040516101d3919061172e565b60405180910390f35b6000801b600160008481526020019081526020016000206000015403610237576040517f08c379a000000000000000000000000000000000000000000000000000000000815260040161022e9061179c565b60405180910390fd5b600033428360405160200161024e939291906117bc565b604051602081830303815290604052805190602001209050600260008481526020019081526020016000206040518060a001604052808581526020018381526020013373ffffffffffffffffffffffffffffffffffffffff168152602001848152602001428152509080600181540180825580915050600190039060005260206000209060050201600090919091909150600082015181600001556020820151816001015560408201518160020160006101000a81548173ffffffffffffffffffffffffffffffffffffffff021916908373ffffffffffffffffffffffffffffffffffffffff160217905550606082015181600301908161034f9190611a06565b506080820151816004015550507f4cbb3727ec6ce492134461e073cb2315a14d836a16a1dd9d219833780eb36c5183823385426040516103939594939291906111b2565b60405180910390a1505050565b600381815481106103b057600080fd5b906000526020600020016000915090505481565b60008054906101000a900473ffffffffffffffffffffffffffffffffffffffff1681565b6002602052816000526040600020818154811061040457600080fd5b9060005260206000209060050201600091509150508060000154908060010154908060020160009054906101000a900473ffffffffffffffffffffffffffffffffffffffff169080600301805461045a90611829565b80601f016020809104026020016040519081016040528092919081815260200182805461048690611829565b80156104d35780601f106104a8576101008083540402835291602001916104d3565b820191906000526020600020905b8154815290600101906020018083116104b657829003601f168201915b5050505050908060040154905085565b6000334285856040516020016104fc9493929190611ad8565b6040516020818303038152906040528051906020012090506040518060c001604052808281526020013373ffffffffffffffffffffffffffffffffffffffff168152602001858152602001848152602001428152602001836002811115610566576105656112e9565b5b815250600160008381526020019081526020016000206000820151816000015560208201518160010160006101000a81548173ffffffffffffffffffffffffffffffffffffffff021916908373ffffffffffffffffffffffffffffffffffffffff16021790555060408201518160020190816105e29190611a06565b5060608201518160030190816105f89190611a06565b506080820151816004015560a08201518160050160006101000a81548160ff0219169083600281111561062e5761062d6112e9565b5b021790555090505060038190806001815401808255809150506001900390600052602060002001600090919091909150557fd5e0da4e9489101bbaa153cd18b2e3a0bdfb7d5c779edf6665ca1d6ffd363e4681338686428760405161069896959493929190611360565b60405180910390a150505050565b60016020528060005260406000206000915090508060000154908060010160009054906101000a900473ffffffffffffffffffffffffffffffffffffffff16908060020180546106f590611829565b80601f016020809104026020016040519081016040528092919081815260200182805461072190611829565b801561076e5780601f106107435761010080835404028352916020019161076e565b820191906000526020600020905b81548152906001019060200180831161075157829003601f168201915b50505050509080600301805461078390611829565b80601f01602080910402602001604051908101604052809291908181526020018280546107af90611829565b80156107fc5780601f106107d1576101008083540402835291602001916107fc565b820191906000526020600020905b8154815290600101906020018083116107df57829003601f168201915b5050505050908060040154908060050160009054906101000a900460ff16905086565b60606000805b6003805490508110156108ba57836002811115610845576108446112e9565b5b600160006003848154811061085d5761085c611b2b565b5b9060005260206000200154815260200190815260200160002060050160009054906101000a900460ff166002811115610899576108986112e9565b5b036108ad5781806108a990611b89565b9250505b8080600101915050610825565b5060008167ffffffffffffffff8111156108d7576108d6610e74565b5b60405190808252806020026020018201604052801561091057816020015b6108fd610dae565b8152602001906001900390816108f55790505b5090506000805b600380549050811015610bcf57856002811115610937576109366112e9565b5b600160006003848154811061094f5761094e611b2b565b5b9060005260206000200154815260200190815260200160002060050160009054906101000a900460ff16600281111561098b5761098a6112e9565b5b03610bc25760016000600383815481106109a8576109a7611b2b565b5b906000526020600020015481526020019081526020016000206040518060c0016040529081600082015481526020016001820160009054906101000a900473ffffffffffffffffffffffffffffffffffffffff1673ffffffffffffffffffffffffffffffffffffffff1673ffffffffffffffffffffffffffffffffffffffff168152602001600282018054610a3c90611829565b80601f0160208091040260200160405190810160405280929190818152602001828054610a6890611829565b8015610ab55780601f10610a8a57610100808354040283529160200191610ab5565b820191906000526020600020905b815481529060010190602001808311610a9857829003601f168201915b50505050508152602001600382018054610ace90611829565b80601f0160208091040260200160405190810160405280929190818152602001828054610afa90611829565b8015610b475780601f10610b1c57610100808354040283529160200191610b47565b820191906000526020600020905b815481529060010190602001808311610b2a57829003601f168201915b50505050508152602001600482015481526020016005820160009054906101000a900460ff166002811115610b7f57610b7e6112e9565b5b6002811115610b9157610b906112e9565b5b81525050838381518110610ba857610ba7611b2b565b5b60200260200101819052508180610bbe90611b89565b9250505b8080600101915050610917565b50819350505050919050565b60606000801b600160008481526020019081526020016000206000015403610c38576040517f08c379a0000000000000000000000000000000000000000000000000000000008152600401610c2f9061179c565b60405180910390fd5b60026000838152602001908152602001600020805480602002602001604051908101604052809291908181526020016000905b82821015610da357838290600052602060002090600502016040518060a001604052908160008201548152602001600182015481526020016002820160009054906101000a900473ffffffffffffffffffffffffffffffffffffffff1673ffffffffffffffffffffffffffffffffffffffff1673ffffffffffffffffffffffffffffffffffffffff168152602001600382018054610d0890611829565b80601f0160208091040260200160405190810160405280929190818152602001828054610d3490611829565b8015610d815780601f10610d5657610100808354040283529160200191610d81565b820191906000526020600020905b815481529060010190602001808311610d6457829003601f168201915b5050505050815260200160048201548152505081526020019060010190610c6b565b505050509050919050565b6040518060c0016040528060008019168152602001600073ffffffffffffffffffffffffffffffffffffffff16815260200160608152602001606081526020016000815260200160006002811115610e0957610e086112e9565b5b81525090565b6000604051905090565b600080fd5b600080fd5b6000819050919050565b610e3681610e23565b8114610e4157600080fd5b50565b600081359050610e5381610e2d565b92915050565b600080fd5b600080fd5b6000601f19601f8301169050919050565b7f4e487b7100000000000000000000000000000000000000000000000000000000600052604160045260246000fd5b610eac82610e63565b810181811067ffffffffffffffff82111715610ecb57610eca610e74565b5b80604052505050565b6000610ede610e0f565b9050610eea8282610ea3565b919050565b600067ffffffffffffffff821115610f0a57610f09610e74565b5b610f1382610e63565b9050602081019050919050565b82818337600083830152505050565b6000610f42610f3d84610eef565b610ed4565b905082815260208101848484011115610f5e57610f5d610e5e565b5b610f69848285610f20565b509392505050565b600082601f830112610f8657610f85610e59565b5b8135610f96848260208601610f2f565b91505092915050565b60008060408385031215610fb657610fb5610e19565b5b6000610fc485828601610e44565b925050602083013567ffffffffffffffff811115610fe557610fe4610e1e565b5b610ff185828601610f71565b9150509250929050565b6000819050919050565b61100e81610ffb565b811461101957600080fd5b50565b60008135905061102b81611005565b92915050565b60006020828403121561104757611046610e19565b5b60006110558482850161101c565b91505092915050565b61106781610e23565b82525050565b6000602082019050611082600083018461105e565b92915050565b600073ffffffffffffffffffffffffffffffffffffffff82169050919050565b60006110b382611088565b9050919050565b6110c3816110a8565b82525050565b60006020820190506110de60008301846110ba565b92915050565b600080604083850312156110fb576110fa610e19565b5b600061110985828601610e44565b925050602061111a8582860161101c565b9150509250929050565b600081519050919050565b600082825260208201905092915050565b60005b8381101561115e578082015181840152602081019050611143565b60008484015250505050565b600061117582611124565b61117f818561112f565b935061118f818560208601611140565b61119881610e63565b840191505092915050565b6111ac81610ffb565b82525050565b600060a0820190506111c7600083018861105e565b6111d4602083018761105e565b6111e160408301866110ba565b81810360608301526111f3818561116a565b905061120260808301846111a3565b9695505050505050565b6003811061121957600080fd5b50565b60008135905061122b8161120c565b92915050565b60008060006060848603121561124a57611249610e19565b5b600084013567ffffffffffffffff81111561126857611267610e1e565b5b61127486828701610f71565b935050602084013567ffffffffffffffff81111561129557611294610e1e565b5b6112a186828701610f71565b92505060406112b28682870161121c565b9150509250925092565b6000602082840312156112d2576112d1610e19565b5b60006112e084828501610e44565b91505092915050565b7f4e487b7100000000000000000000000000000000000000000000000000000000600052602160045260246000fd5b60038110611329576113286112e9565b5b50565b600081905061133a82611318565b919050565b600061134a8261132c565b9050919050565b61135a8161133f565b82525050565b600060c082019050611375600083018961105e565b61138260208301886110ba565b8181036040830152611394818761116a565b905081810360608301526113a8818661116a565b90506113b760808301856111a3565b6113c460a0830184611351565b979650505050505050565b6000602082840312156113e5576113e4610e19565b5b60006113f38482850161121c565b91505092915050565b600081519050919050565b600082825260208201905092915050565b6000819050602082019050919050565b61143181610e23565b82525050565b611440816110a8565b82525050565b600082825260208201905092915050565b600061146282611124565b61146c8185611446565b935061147c818560208601611140565b61148581610e63565b840191505092915050565b61149981610ffb565b82525050565b6114a88161133f565b82525050565b600060c0830160008301516114c66000860182611428565b5060208301516114d96020860182611437565b50604083015184820360408601526114f18282611457565b9150506060830151848203606086015261150b8282611457565b91505060808301516115206080860182611490565b5060a083015161153360a086018261149f565b508091505092915050565b600061154a83836114ae565b905092915050565b6000602082019050919050565b600061156a826113fc565b6115748185611407565b93508360208202850161158685611418565b8060005b858110156115c257848403895281516115a3858261153e565b94506115ae83611552565b925060208a0199505060018101905061158a565b50829750879550505050505092915050565b600060208201905081810360008301526115ee818461155f565b905092915050565b600081519050919050565b600082825260208201905092915050565b6000819050602082019050919050565b600060a08301600083015161163a6000860182611428565b50602083015161164d6020860182611428565b5060408301516116606040860182611437565b50606083015184820360608601526116788282611457565b915050608083015161168d6080860182611490565b508091505092915050565b60006116a48383611622565b905092915050565b6000602082019050919050565b60006116c4826115f6565b6116ce8185611601565b9350836020820285016116e085611612565b8060005b8581101561171c57848403895281516116fd8582611698565b9450611708836116ac565b925060208a019950506001810190506116e4565b50829750879550505050505092915050565b6000602082019050818103600083015261174881846116b9565b905092915050565b7f506f737420646f6573206e6f7420657869737400000000000000000000000000600082015250565b600061178660138361112f565b915061179182611750565b602082019050919050565b600060208201905081810360008301526117b581611779565b9050919050565b60006060820190506117d160008301866110ba565b6117de60208301856111a3565b81810360408301526117f0818461116a565b9050949350505050565b7f4e487b7100000000000000000000000000000000000000000000000000000000600052602260045260246000fd5b6000600282049050600182168061184157607f821691505b602082108103611854576118536117fa565b5b50919050565b60008190508160005260206000209050919050565b60006020601f8301049050919050565b600082821b905092915050565b6000600883026118bc7fffffffffffffffffffffffffffffffffffffffffffffffffffffffffffffffff8261187f565b6118c6868361187f565b95508019841693508086168417925050509392505050565b6000819050919050565b60006119036118fe6118f984610ffb565b6118de565b610ffb565b9050919050565b6000819050919050565b61191d836118e8565b6119316119298261190a565b84845461188c565b825550505050565b600090565b611946611939565b611951818484611914565b505050565b5b818110156119755761196a60008261193e565b600181019050611957565b5050565b601f8211156119ba5761198b8161185a565b6119948461186f565b810160208510156119a3578190505b6119b76119af8561186f565b830182611956565b50505b505050565b600082821c905092915050565b60006119dd600019846008026119bf565b1980831691505092915050565b60006119f683836119cc565b9150826002028217905092915050565b611a0f82611124565b67ffffffffffffffff811115611a2857611a27610e74565b5b611a328254611829565b611a3d828285611979565b600060209050601f831160018114611a705760008415611a5e578287015190505b611a6885826119ea565b865550611ad0565b601f198416611a7e8661185a565b60005b82811015611aa657848901518255600182019150602085019450602081019050611a81565b86831015611ac35784890151611abf601f8916826119cc565b8355505b6001600288020188555050505b505050505050565b6000608082019050611aed60008301876110ba565b611afa60208301866111a3565b8181036040830152611b0c818561116a565b90508181036060830152611b20818461116a565b905095945050505050565b7f4e487b7100000000000000000000000000000000000000000000000000000000600052603260045260246000fd5b7f4e487b7100000000000000000000000000000000000000000000000000000000600052601160045260246000fd5b6000611b9482610ffb565b91507fffffffffffffffffffffffffffffffffffffffffffffffffffffffffffffffff8203611bc657611bc5611b5a565b5b60018201905091905056fea264697066735822122094b7a3d7c4eab54c0c61046adcf792e323be9580d4bdd29a576a1a599203ae0864736f6c634300081c0033",
  "linkReferences": {},
  "deployedLinkReferences": {}
}